{
  "_format": "hh-sol-artifact-1",
  "contractName": "FreshFood",
  "sourceName": "contracts/FreshFood.sol",
  "abi": [
    {
      "inputs": [],
      "stateMutability": "nonpayable",
      "type": "constructor"
    },
    {
      "anonymous": false,
      "inputs": [
        {
          "indexed": true,
          "internalType": "address",
          "name": "owner",
          "type": "address"
        },
        {
          "indexed": true,
          "internalType": "address",
          "name": "approved",
          "type": "address"
        },
        {
          "indexed": true,
          "internalType": "uint256",
          "name": "tokenId",
          "type": "uint256"
        }
      ],
      "name": "Approval",
      "type": "event"
    },
    {
      "anonymous": false,
      "inputs": [
        {
          "indexed": true,
          "internalType": "address",
          "name": "owner",
          "type": "address"
        },
        {
          "indexed": true,
          "internalType": "address",
          "name": "operator",
          "type": "address"
        },
        {
          "indexed": false,
          "internalType": "bool",
          "name": "approved",
          "type": "bool"
        }
      ],
      "name": "ApprovalForAll",
      "type": "event"
    },
    {
      "anonymous": false,
      "inputs": [
        {
          "indexed": true,
          "internalType": "address",
          "name": "previousOwner",
          "type": "address"
        },
        {
          "indexed": true,
          "internalType": "address",
          "name": "newOwner",
          "type": "address"
        }
      ],
      "name": "OwnershipTransferred",
      "type": "event"
    },
    {
      "anonymous": false,
      "inputs": [
        {
          "indexed": true,
          "internalType": "address",
          "name": "from",
          "type": "address"
        },
        {
          "indexed": true,
          "internalType": "address",
          "name": "to",
          "type": "address"
        },
        {
          "indexed": true,
          "internalType": "uint256",
          "name": "tokenId",
          "type": "uint256"
        }
      ],
      "name": "Transfer",
      "type": "event"
    },
    {
      "inputs": [
        {
          "internalType": "uint256",
          "name": "_productId",
          "type": "uint256"
        },
        {
          "internalType": "string",
          "name": "_url",
          "type": "string"
        },
        {
          "internalType": "string",
          "name": "_hash",
          "type": "string"
        },
        {
          "internalType": "string",
          "name": "_location",
          "type": "string"
        }
      ],
      "name": "addLog",
      "outputs": [],
      "stateMutability": "nonpayable",
      "type": "function"
    },
    {
      "inputs": [
        {
          "internalType": "string",
          "name": "_name",
          "type": "string"
        },
        {
          "internalType": "string",
          "name": "_origin",
          "type": "string"
        }
      ],
      "name": "addProduct",
      "outputs": [],
      "stateMutability": "nonpayable",
      "type": "function"
    },
    {
      "inputs": [
        {
          "internalType": "address",
          "name": "to",
          "type": "address"
        },
        {
          "internalType": "uint256",
          "name": "tokenId",
          "type": "uint256"
        }
      ],
      "name": "approve",
      "outputs": [],
      "stateMutability": "nonpayable",
      "type": "function"
    },
    {
      "inputs": [
        {
          "internalType": "address",
          "name": "owner",
          "type": "address"
        }
      ],
      "name": "balanceOf",
      "outputs": [
        {
          "internalType": "uint256",
          "name": "",
          "type": "uint256"
        }
      ],
      "stateMutability": "view",
      "type": "function"
    },
    {
      "inputs": [
        {
          "internalType": "uint256",
          "name": "_productId",
          "type": "uint256"
        }
      ],
      "name": "checkProductVerified",
      "outputs": [
        {
          "internalType": "bool",
          "name": "",
          "type": "bool"
        }
      ],
      "stateMutability": "view",
      "type": "function"
    },
    {
      "inputs": [
        {
          "internalType": "uint256",
          "name": "tokenId",
          "type": "uint256"
        }
      ],
      "name": "getApproved",
      "outputs": [
        {
          "internalType": "address",
          "name": "",
          "type": "address"
        }
      ],
      "stateMutability": "view",
      "type": "function"
    },
    {
      "inputs": [
        {
          "internalType": "uint256",
          "name": "_productId",
          "type": "uint256"
        }
      ],
      "name": "getCurrentOwnerOfProduct",
      "outputs": [
        {
          "components": [
            {
              "internalType": "string",
              "name": "name",
              "type": "string"
            },
            {
              "internalType": "string",
              "name": "description",
              "type": "string"
            }
          ],
          "internalType": "struct Owner",
          "name": "",
          "type": "tuple"
        }
      ],
      "stateMutability": "view",
      "type": "function"
    },
    {
      "inputs": [
        {
          "internalType": "uint256",
          "name": "_productId",
          "type": "uint256"
        }
      ],
      "name": "getLogById",
      "outputs": [
        {
          "components": [
            {
              "internalType": "string",
              "name": "objectId",
              "type": "string"
            },
            {
              "internalType": "string",
              "name": "hash",
              "type": "string"
            },
            {
              "internalType": "string",
              "name": "location",
              "type": "string"
            }
          ],
          "internalType": "struct Log[]",
          "name": "",
          "type": "tuple[]"
        }
      ],
      "stateMutability": "view",
      "type": "function"
    },
    {
      "inputs": [],
      "name": "getOwner",
      "outputs": [
        {
          "components": [
            {
              "internalType": "string",
              "name": "name",
              "type": "string"
            },
            {
              "internalType": "string",
              "name": "description",
              "type": "string"
            }
          ],
          "internalType": "struct Owner",
          "name": "",
          "type": "tuple"
        }
      ],
      "stateMutability": "view",
      "type": "function"
    },
    {
      "inputs": [
        {
          "internalType": "address",
          "name": "_ownerAddr",
          "type": "address"
        }
      ],
      "name": "getOwnerByAddress",
      "outputs": [
        {
          "components": [
            {
              "internalType": "string",
              "name": "name",
              "type": "string"
            },
            {
              "internalType": "string",
              "name": "description",
              "type": "string"
            }
          ],
          "internalType": "struct Owner",
          "name": "",
          "type": "tuple"
        }
      ],
      "stateMutability": "view",
      "type": "function"
    },
    {
      "inputs": [
        {
          "internalType": "uint256",
          "name": "_productId",
          "type": "uint256"
        }
      ],
      "name": "getOwnersOfProduct",
      "outputs": [
        {
          "components": [
            {
              "internalType": "string",
              "name": "name",
              "type": "string"
            },
            {
              "internalType": "string",
              "name": "description",
              "type": "string"
            }
          ],
          "internalType": "struct Owner[]",
          "name": "",
          "type": "tuple[]"
        }
      ],
      "stateMutability": "view",
      "type": "function"
    },
    {
      "inputs": [
        {
          "internalType": "uint256",
          "name": "_productId",
          "type": "uint256"
        }
      ],
      "name": "getProductById",
      "outputs": [
        {
          "components": [
            {
              "internalType": "uint256",
              "name": "productId",
              "type": "uint256"
            },
            {
              "internalType": "string",
              "name": "name",
              "type": "string"
            },
            {
              "internalType": "string",
              "name": "origin",
              "type": "string"
            },
            {
              "components": [
                {
                  "internalType": "string",
                  "name": "name",
                  "type": "string"
                },
                {
                  "internalType": "string",
                  "name": "description",
                  "type": "string"
                }
              ],
              "internalType": "struct Owner[]",
              "name": "ownerList",
              "type": "tuple[]"
            },
            {
              "components": [
                {
                  "internalType": "string",
                  "name": "objectId",
                  "type": "string"
                },
                {
                  "internalType": "string",
                  "name": "hash",
                  "type": "string"
                },
                {
                  "internalType": "string",
                  "name": "location",
                  "type": "string"
                }
              ],
              "internalType": "struct Log[]",
              "name": "logList",
              "type": "tuple[]"
            },
            {
              "internalType": "bool",
              "name": "verified",
              "type": "bool"
            }
          ],
          "internalType": "struct Product",
          "name": "",
          "type": "tuple"
        }
      ],
      "stateMutability": "view",
      "type": "function"
    },
    {
      "inputs": [
        {
          "internalType": "address",
          "name": "_ownerAddr",
          "type": "address"
        }
      ],
      "name": "getProductByOwner",
      "outputs": [
        {
          "components": [
            {
              "internalType": "uint256",
              "name": "productId",
              "type": "uint256"
            },
            {
              "internalType": "string",
              "name": "name",
              "type": "string"
            },
            {
              "internalType": "string",
              "name": "origin",
              "type": "string"
            },
            {
              "components": [
                {
                  "internalType": "string",
                  "name": "name",
                  "type": "string"
                },
                {
                  "internalType": "string",
                  "name": "description",
                  "type": "string"
                }
              ],
              "internalType": "struct Owner[]",
              "name": "ownerList",
              "type": "tuple[]"
            },
            {
              "components": [
                {
                  "internalType": "string",
                  "name": "objectId",
                  "type": "string"
                },
                {
                  "internalType": "string",
                  "name": "hash",
                  "type": "string"
                },
                {
                  "internalType": "string",
                  "name": "location",
                  "type": "string"
                }
              ],
              "internalType": "struct Log[]",
              "name": "logList",
              "type": "tuple[]"
            },
            {
              "internalType": "bool",
              "name": "verified",
              "type": "bool"
            }
          ],
          "internalType": "struct Product[]",
          "name": "",
          "type": "tuple[]"
        }
      ],
      "stateMutability": "view",
      "type": "function"
    },
    {
      "inputs": [
        {
          "internalType": "address",
          "name": "owner",
          "type": "address"
        },
        {
          "internalType": "address",
          "name": "operator",
          "type": "address"
        }
      ],
      "name": "isApprovedForAll",
      "outputs": [
        {
          "internalType": "bool",
          "name": "",
          "type": "bool"
        }
      ],
      "stateMutability": "view",
      "type": "function"
    },
    {
      "inputs": [],
      "name": "name",
      "outputs": [
        {
          "internalType": "string",
          "name": "",
          "type": "string"
        }
      ],
      "stateMutability": "view",
      "type": "function"
    },
    {
      "inputs": [],
      "name": "owner",
      "outputs": [
        {
          "internalType": "address",
          "name": "",
          "type": "address"
        }
      ],
      "stateMutability": "view",
      "type": "function"
    },
    {
      "inputs": [
        {
          "internalType": "uint256",
          "name": "tokenId",
          "type": "uint256"
        }
      ],
      "name": "ownerOf",
      "outputs": [
        {
          "internalType": "address",
          "name": "",
          "type": "address"
        }
      ],
      "stateMutability": "view",
      "type": "function"
    },
    {
      "inputs": [
        {
          "internalType": "address",
          "name": "",
          "type": "address"
        }
      ],
      "name": "owners",
      "outputs": [
        {
          "internalType": "string",
          "name": "name",
          "type": "string"
        },
        {
          "internalType": "string",
          "name": "description",
          "type": "string"
        }
      ],
      "stateMutability": "view",
      "type": "function"
    },
    {
      "inputs": [
        {
          "internalType": "uint256",
          "name": "",
          "type": "uint256"
        }
      ],
      "name": "products",
      "outputs": [
        {
          "internalType": "uint256",
          "name": "productId",
          "type": "uint256"
        },
        {
          "internalType": "string",
          "name": "name",
          "type": "string"
        },
        {
          "internalType": "string",
          "name": "origin",
          "type": "string"
        },
        {
          "internalType": "bool",
          "name": "verified",
          "type": "bool"
        }
      ],
      "stateMutability": "view",
      "type": "function"
    },
    {
      "inputs": [
        {
          "internalType": "string",
          "name": "_name",
          "type": "string"
        },
        {
          "internalType": "string",
          "name": "_description",
          "type": "string"
        }
      ],
      "name": "registerOwner",
      "outputs": [
        {
          "components": [
            {
              "internalType": "string",
              "name": "name",
              "type": "string"
            },
            {
              "internalType": "string",
              "name": "description",
              "type": "string"
            }
          ],
          "internalType": "struct Owner",
          "name": "",
          "type": "tuple"
        }
      ],
      "stateMutability": "nonpayable",
      "type": "function"
    },
    {
      "inputs": [],
      "name": "renounceOwnership",
      "outputs": [],
      "stateMutability": "nonpayable",
      "type": "function"
    },
    {
      "inputs": [
        {
          "internalType": "address",
          "name": "to",
          "type": "address"
        }
      ],
      "name": "safeMint",
      "outputs": [],
      "stateMutability": "nonpayable",
      "type": "function"
    },
    {
      "inputs": [
        {
          "internalType": "address",
          "name": "from",
          "type": "address"
        },
        {
          "internalType": "address",
          "name": "to",
          "type": "address"
        },
        {
          "internalType": "uint256",
          "name": "tokenId",
          "type": "uint256"
        }
      ],
      "name": "safeTransferFrom",
      "outputs": [],
      "stateMutability": "nonpayable",
      "type": "function"
    },
    {
      "inputs": [
        {
          "internalType": "address",
          "name": "from",
          "type": "address"
        },
        {
          "internalType": "address",
          "name": "to",
          "type": "address"
        },
        {
          "internalType": "uint256",
          "name": "tokenId",
          "type": "uint256"
        },
        {
          "internalType": "bytes",
          "name": "data",
          "type": "bytes"
        }
      ],
      "name": "safeTransferFrom",
      "outputs": [],
      "stateMutability": "nonpayable",
      "type": "function"
    },
    {
      "inputs": [
        {
          "internalType": "address",
          "name": "operator",
          "type": "address"
        },
        {
          "internalType": "bool",
          "name": "approved",
          "type": "bool"
        }
      ],
      "name": "setApprovalForAll",
      "outputs": [],
      "stateMutability": "nonpayable",
      "type": "function"
    },
    {
      "inputs": [
        {
          "internalType": "bytes4",
          "name": "interfaceId",
          "type": "bytes4"
        }
      ],
      "name": "supportsInterface",
      "outputs": [
        {
          "internalType": "bool",
          "name": "",
          "type": "bool"
        }
      ],
      "stateMutability": "view",
      "type": "function"
    },
    {
      "inputs": [],
      "name": "symbol",
      "outputs": [
        {
          "internalType": "string",
          "name": "",
          "type": "string"
        }
      ],
      "stateMutability": "view",
      "type": "function"
    },
    {
      "inputs": [
        {
          "internalType": "uint256",
          "name": "tokenId",
          "type": "uint256"
        }
      ],
      "name": "tokenURI",
      "outputs": [
        {
          "internalType": "string",
          "name": "",
          "type": "string"
        }
      ],
      "stateMutability": "view",
      "type": "function"
    },
    {
      "inputs": [
        {
          "internalType": "address",
          "name": "from",
          "type": "address"
        },
        {
          "internalType": "address",
          "name": "to",
          "type": "address"
        },
        {
          "internalType": "uint256",
          "name": "tokenId",
          "type": "uint256"
        }
      ],
      "name": "transferFrom",
      "outputs": [],
      "stateMutability": "nonpayable",
      "type": "function"
    },
    {
      "inputs": [
        {
          "internalType": "address",
          "name": "newOwner",
          "type": "address"
        }
      ],
      "name": "transferOwnership",
      "outputs": [],
      "stateMutability": "nonpayable",
      "type": "function"
    },
    {
      "inputs": [
        {
          "internalType": "uint256",
          "name": "_productId",
          "type": "uint256"
        },
        {
          "internalType": "address",
          "name": "_newOwner",
          "type": "address"
        }
      ],
      "name": "transferProduct",
      "outputs": [],
      "stateMutability": "nonpayable",
      "type": "function"
    },
    {
      "inputs": [
        {
          "internalType": "uint256",
          "name": "_productId",
          "type": "uint256"
        }
      ],
      "name": "verifyProduct",
      "outputs": [],
      "stateMutability": "nonpayable",
      "type": "function"
    }
  ],
  "bytecode": "0x60806040523480156200001157600080fd5b506040518060400160405280600981526020017f4672657368466f6f6400000000000000000000000000000000000000000000008152506040518060400160405280600381526020017f465246000000000000000000000000000000000000000000000000000000000081525081600090816200008f919062000412565b508060019081620000a1919062000412565b505050620000c4620000b8620000ca60201b60201c565b620000d260201b60201c565b620004f9565b600033905090565b6000600660009054906101000a900473ffffffffffffffffffffffffffffffffffffffff16905081600660006101000a81548173ffffffffffffffffffffffffffffffffffffffff021916908373ffffffffffffffffffffffffffffffffffffffff1602179055508173ffffffffffffffffffffffffffffffffffffffff168173ffffffffffffffffffffffffffffffffffffffff167f8be0079c531659141344cd1fd0a4f28419497f9722a3daafe3b4186f6b6457e060405160405180910390a35050565b600081519050919050565b7f4e487b7100000000000000000000000000000000000000000000000000000000600052604160045260246000fd5b7f4e487b7100000000000000000000000000000000000000000000000000000000600052602260045260246000fd5b600060028204905060018216806200021a57607f821691505b60208210810362000230576200022f620001d2565b5b50919050565b60008190508160005260206000209050919050565b60006020601f8301049050919050565b600082821b905092915050565b6000600883026200029a7fffffffffffffffffffffffffffffffffffffffffffffffffffffffffffffffff826200025b565b620002a686836200025b565b95508019841693508086168417925050509392505050565b6000819050919050565b6000819050919050565b6000620002f3620002ed620002e784620002be565b620002c8565b620002be565b9050919050565b6000819050919050565b6200030f83620002d2565b620003276200031e82620002fa565b84845462000268565b825550505050565b600090565b6200033e6200032f565b6200034b81848462000304565b505050565b5b8181101562000373576200036760008262000334565b60018101905062000351565b5050565b601f821115620003c2576200038c8162000236565b62000397846200024b565b81016020851015620003a7578190505b620003bf620003b6856200024b565b83018262000350565b50505b505050565b600082821c905092915050565b6000620003e760001984600802620003c7565b1980831691505092915050565b6000620004028383620003d4565b9150826002028217905092915050565b6200041d8262000198565b67ffffffffffffffff811115620004395762000438620001a3565b5b62000445825462000201565b6200045282828562000377565b600060209050601f8311600181146200048a576000841562000475578287015190505b620004818582620003f4565b865550620004f1565b601f1984166200049a8662000236565b60005b82811015620004c4578489015182556001820191506020850194506020810190506200049d565b86831015620004e45784890151620004e0601f891682620003d4565b8355505b6001600288020188555050505b505050505050565b615cb780620005096000396000f3fe608060405234801561001057600080fd5b50600436106101f05760003560e01c80637acc0b201161010f578063c87b56dd116100a2578063e7ab073111610071578063e7ab073114610617578063e985e9c514610633578063f2fde38b14610663578063f8d292341461067f576101f0565b8063c87b56dd1461057f578063ca2efb55146105af578063d0d0bf01146105cb578063e43059e5146105fb576101f0565b806395d89b41116100de57806395d89b41146104f9578063a22cb46514610517578063a4fde7c614610533578063b88d4fde14610563576101f0565b80637acc0b201461045a5780637dd4040a1461048d578063893d20e8146104bd5780638da5cb5b146104db576101f0565b806340d097c3116101875780636352211e116101565780636352211e146103c05780636f442154146103f057806370a0823114610420578063715018a614610450576101f0565b806340d097c31461033c57806342842e0e1461035857806345c45b4a14610374578063524e8462146103a4576101f0565b8063095ea7b3116101c3578063095ea7b3146102a45780630c07574e146102c057806323b872dd146102f05780633f70c2b41461030c576101f0565b806301ffc9a7146101f5578063022914a71461022557806306fdde0314610256578063081812fc14610274575b600080fd5b61020f600480360381019061020a9190613ef9565b6106af565b60405161021c9190613f41565b60405180910390f35b61023f600480360381019061023a9190613fba565b610791565b60405161024d929190614077565b60405180910390f35b61025e6108c5565b60405161026b91906140ae565b60405180910390f35b61028e60048036038101906102899190614106565b610957565b60405161029b9190614142565b60405180910390f35b6102be60048036038101906102b9919061415d565b61099d565b005b6102da60048036038101906102d59190614106565b610ab4565b6040516102e79190614307565b60405180910390f35b61030a60048036038101906103059190614329565b610cdf565b005b61032660048036038101906103219190614106565b610d3f565b60405161033391906145c4565b60405180910390f35b61035660048036038101906103519190613fba565b61124d565b005b610372600480360381019061036d9190614329565b61127b565b005b61038e60048036038101906103899190614106565b61129b565b60405161039b9190613f41565b60405180910390f35b6103be60048036038101906103b99190614106565b6112c8565b005b6103da60048036038101906103d59190614106565b611370565b6040516103e79190614142565b60405180910390f35b61040a60048036038101906104059190613fba565b6113f6565b604051610417919061462a565b60405180910390f35b61043a60048036038101906104359190613fba565b611573565b604051610447919061465b565b60405180910390f35b61045861162a565b005b610474600480360381019061046f9190614106565b61163e565b6040516104849493929190614676565b60405180910390f35b6104a760048036038101906104a29190614106565b61178b565b6040516104b4919061462a565b60405180910390f35b6104c5611924565b6040516104d2919061462a565b60405180910390f35b6104e3611a9f565b6040516104f09190614142565b60405180910390f35b610501611ac9565b60405161050e91906140ae565b60405180910390f35b610531600480360381019061052c91906146f5565b611b5b565b005b61054d6004803603810190610548919061486a565b611b71565b60405161055a919061462a565b60405180910390f35b61057d60048036038101906105789190614983565b611c4f565b005b61059960048036038101906105949190614106565b611cb1565b6040516105a691906140ae565b60405180910390f35b6105c960048036038101906105c4919061486a565b611d19565b005b6105e560048036038101906105e09190613fba565b612044565b6040516105f29190614b66565b60405180910390f35b61061560048036038101906106109190614b88565b6126f2565b005b610631600480360381019061062c9190614bc8565b612acb565b005b61064d60048036038101906106489190614c83565b612c55565b60405161065a9190613f41565b60405180910390f35b61067d60048036038101906106789190613fba565b612ce9565b005b61069960048036038101906106949190614106565b612d6c565b6040516106a69190614d49565b60405180910390f35b60007f80ac58cd000000000000000000000000000000000000000000000000000000007bffffffffffffffffffffffffffffffffffffffffffffffffffffffff1916827bffffffffffffffffffffffffffffffffffffffffffffffffffffffff1916148061077a57507f5b5e139f000000000000000000000000000000000000000000000000000000007bffffffffffffffffffffffffffffffffffffffffffffffffffffffff1916827bffffffffffffffffffffffffffffffffffffffffffffffffffffffff1916145b8061078a575061078982612f05565b5b9050919050565b60096020528060005260406000206000915090508060000180546107b490614d9a565b80601f01602080910402602001604051908101604052809291908181526020018280546107e090614d9a565b801561082d5780601f106108025761010080835404028352916020019161082d565b820191906000526020600020905b81548152906001019060200180831161081057829003601f168201915b50505050509080600101805461084290614d9a565b80601f016020809104026020016040519081016040528092919081815260200182805461086e90614d9a565b80156108bb5780601f10610890576101008083540402835291602001916108bb565b820191906000526020600020905b81548152906001019060200180831161089e57829003601f168201915b5050505050905082565b6060600080546108d490614d9a565b80601f016020809104026020016040519081016040528092919081815260200182805461090090614d9a565b801561094d5780601f106109225761010080835404028352916020019161094d565b820191906000526020600020905b81548152906001019060200180831161093057829003601f168201915b5050505050905090565b600061096282612f6f565b6004600083815260200190815260200160002060009054906101000a900473ffffffffffffffffffffffffffffffffffffffff169050919050565b60006109a882611370565b90508073ffffffffffffffffffffffffffffffffffffffff168373ffffffffffffffffffffffffffffffffffffffff1603610a18576040517f08c379a0000000000000000000000000000000000000000000000000000000008152600401610a0f90614e3d565b60405180910390fd5b8073ffffffffffffffffffffffffffffffffffffffff16610a37612fba565b73ffffffffffffffffffffffffffffffffffffffff161480610a665750610a6581610a60612fba565b612c55565b5b610aa5576040517f08c379a0000000000000000000000000000000000000000000000000000000008152600401610a9c90614ecf565b60405180910390fd5b610aaf8383612fc2565b505050565b606060086000838152602001908152602001600020600401805480602002602001604051908101604052809291908181526020016000905b82821015610cd45783829060005260206000209060030201604051806060016040529081600082018054610b1f90614d9a565b80601f0160208091040260200160405190810160405280929190818152602001828054610b4b90614d9a565b8015610b985780601f10610b6d57610100808354040283529160200191610b98565b820191906000526020600020905b815481529060010190602001808311610b7b57829003601f168201915b50505050508152602001600182018054610bb190614d9a565b80601f0160208091040260200160405190810160405280929190818152602001828054610bdd90614d9a565b8015610c2a5780601f10610bff57610100808354040283529160200191610c2a565b820191906000526020600020905b815481529060010190602001808311610c0d57829003601f168201915b50505050508152602001600282018054610c4390614d9a565b80601f0160208091040260200160405190810160405280929190818152602001828054610c6f90614d9a565b8015610cbc5780601f10610c9157610100808354040283529160200191610cbc565b820191906000526020600020905b815481529060010190602001808311610c9f57829003601f168201915b50505050508152505081526020019060010190610aec565b505050509050919050565b610cf0610cea612fba565b8261307b565b610d2f576040517f08c379a0000000000000000000000000000000000000000000000000000000008152600401610d2690614f61565b60405180910390fd5b610d3a838383613110565b505050565b610d47613e3b565b600860008381526020019081526020016000206040518060c001604052908160008201548152602001600182018054610d7f90614d9a565b80601f0160208091040260200160405190810160405280929190818152602001828054610dab90614d9a565b8015610df85780601f10610dcd57610100808354040283529160200191610df8565b820191906000526020600020905b815481529060010190602001808311610ddb57829003601f168201915b50505050508152602001600282018054610e1190614d9a565b80601f0160208091040260200160405190810160405280929190818152602001828054610e3d90614d9a565b8015610e8a5780601f10610e5f57610100808354040283529160200191610e8a565b820191906000526020600020905b815481529060010190602001808311610e6d57829003601f168201915b5050505050815260200160038201805480602002602001604051908101604052809291908181526020016000905b8282101561100e5783829060005260206000209060020201604051806040016040529081600082018054610eeb90614d9a565b80601f0160208091040260200160405190810160405280929190818152602001828054610f1790614d9a565b8015610f645780601f10610f3957610100808354040283529160200191610f64565b820191906000526020600020905b815481529060010190602001808311610f4757829003601f168201915b50505050508152602001600182018054610f7d90614d9a565b80601f0160208091040260200160405190810160405280929190818152602001828054610fa990614d9a565b8015610ff65780601f10610fcb57610100808354040283529160200191610ff6565b820191906000526020600020905b815481529060010190602001808311610fd957829003601f168201915b50505050508152505081526020019060010190610eb8565b50505050815260200160048201805480602002602001604051908101604052809291908181526020016000905b82821015611223578382906000526020600020906003020160405180606001604052908160008201805461106e90614d9a565b80601f016020809104026020016040519081016040528092919081815260200182805461109a90614d9a565b80156110e75780601f106110bc576101008083540402835291602001916110e7565b820191906000526020600020905b8154815290600101906020018083116110ca57829003601f168201915b5050505050815260200160018201805461110090614d9a565b80601f016020809104026020016040519081016040528092919081815260200182805461112c90614d9a565b80156111795780601f1061114e57610100808354040283529160200191611179565b820191906000526020600020905b81548152906001019060200180831161115c57829003601f168201915b5050505050815260200160028201805461119290614d9a565b80601f01602080910402602001604051908101604052809291908181526020018280546111be90614d9a565b801561120b5780601f106111e05761010080835404028352916020019161120b565b820191906000526020600020905b8154815290600101906020018083116111ee57829003601f168201915b5050505050815250508152602001906001019061103b565b5050505081526020016005820160009054906101000a900460ff1615151515815250509050919050565b611255613409565b60006112616007613487565b905061126d6007613495565b61127782826134ab565b5050565b61129683838360405180602001604052806000815250611c4f565b505050565b60006008600083815260200190815260200160002060050160009054906101000a900460ff169050919050565b3373ffffffffffffffffffffffffffffffffffffffff166112e882611370565b73ffffffffffffffffffffffffffffffffffffffff161461133e576040517f08c379a000000000000000000000000000000000000000000000000000000000815260040161133590614ff3565b60405180910390fd5b60016008600083815260200190815260200160002060050160006101000a81548160ff02191690831515021790555050565b60008061137c836134c9565b9050600073ffffffffffffffffffffffffffffffffffffffff168173ffffffffffffffffffffffffffffffffffffffff16036113ed576040517f08c379a00000000000000000000000000000000000000000000000000000000081526004016113e49061505f565b60405180910390fd5b80915050919050565b6113fe613e73565b600960008373ffffffffffffffffffffffffffffffffffffffff1673ffffffffffffffffffffffffffffffffffffffff16815260200190815260200160002060405180604001604052908160008201805461145890614d9a565b80601f016020809104026020016040519081016040528092919081815260200182805461148490614d9a565b80156114d15780601f106114a6576101008083540402835291602001916114d1565b820191906000526020600020905b8154815290600101906020018083116114b457829003601f168201915b505050505081526020016001820180546114ea90614d9a565b80601f016020809104026020016040519081016040528092919081815260200182805461151690614d9a565b80156115635780601f1061153857610100808354040283529160200191611563565b820191906000526020600020905b81548152906001019060200180831161154657829003601f168201915b5050505050815250509050919050565b60008073ffffffffffffffffffffffffffffffffffffffff168273ffffffffffffffffffffffffffffffffffffffff16036115e3576040517f08c379a00000000000000000000000000000000000000000000000000000000081526004016115da906150f1565b60405180910390fd5b600360008373ffffffffffffffffffffffffffffffffffffffff1673ffffffffffffffffffffffffffffffffffffffff168152602001908152602001600020549050919050565b611632613409565b61163c6000613506565b565b600860205280600052604060002060009150905080600001549080600101805461166790614d9a565b80601f016020809104026020016040519081016040528092919081815260200182805461169390614d9a565b80156116e05780601f106116b5576101008083540402835291602001916116e0565b820191906000526020600020905b8154815290600101906020018083116116c357829003601f168201915b5050505050908060020180546116f590614d9a565b80601f016020809104026020016040519081016040528092919081815260200182805461172190614d9a565b801561176e5780601f106117435761010080835404028352916020019161176e565b820191906000526020600020905b81548152906001019060200180831161175157829003601f168201915b5050505050908060050160009054906101000a900460ff16905084565b611793613e73565b60086000838152602001908152602001600020600301600160086000858152602001908152602001600020600301805490506117cf9190615140565b815481106117e0576117df615174565b5b906000526020600020906002020160405180604001604052908160008201805461180990614d9a565b80601f016020809104026020016040519081016040528092919081815260200182805461183590614d9a565b80156118825780601f1061185757610100808354040283529160200191611882565b820191906000526020600020905b81548152906001019060200180831161186557829003601f168201915b5050505050815260200160018201805461189b90614d9a565b80601f01602080910402602001604051908101604052809291908181526020018280546118c790614d9a565b80156119145780601f106118e957610100808354040283529160200191611914565b820191906000526020600020905b8154815290600101906020018083116118f757829003601f168201915b5050505050815250509050919050565b61192c613e73565b600960003373ffffffffffffffffffffffffffffffffffffffff1673ffffffffffffffffffffffffffffffffffffffff16815260200190815260200160002060405180604001604052908160008201805461198690614d9a565b80601f01602080910402602001604051908101604052809291908181526020018280546119b290614d9a565b80156119ff5780601f106119d4576101008083540402835291602001916119ff565b820191906000526020600020905b8154815290600101906020018083116119e257829003601f168201915b50505050508152602001600182018054611a1890614d9a565b80601f0160208091040260200160405190810160405280929190818152602001828054611a4490614d9a565b8015611a915780601f10611a6657610100808354040283529160200191611a91565b820191906000526020600020905b815481529060010190602001808311611a7457829003601f168201915b505050505081525050905090565b6000600660009054906101000a900473ffffffffffffffffffffffffffffffffffffffff16905090565b606060018054611ad890614d9a565b80601f0160208091040260200160405190810160405280929190818152602001828054611b0490614d9a565b8015611b515780601f10611b2657610100808354040283529160200191611b51565b820191906000526020600020905b815481529060010190602001808311611b3457829003601f168201915b5050505050905090565b611b6d611b66612fba565b83836135cc565b5050565b611b79613e73565b6000835103611bbd576040517f08c379a0000000000000000000000000000000000000000000000000000000008152600401611bb4906151ef565b60405180910390fd5b6000604051806040016040528085815260200184815250905080600960003373ffffffffffffffffffffffffffffffffffffffff1673ffffffffffffffffffffffffffffffffffffffff1681526020019081526020016000206000820151816000019081611c2b91906153bb565b506020820151816001019081611c4191906153bb565b509050508091505092915050565b611c60611c5a612fba565b8361307b565b611c9f576040517f08c379a0000000000000000000000000000000000000000000000000000000008152600401611c9690614f61565b60405180910390fd5b611cab84848484613738565b50505050565b6060611cbc82612f6f565b6000611cc6613794565b90506000815111611ce65760405180602001604052806000815250611d11565b80611cf0846137ab565b604051602001611d019291906154c9565b6040516020818303038152906040525b915050919050565b6000600960003373ffffffffffffffffffffffffffffffffffffffff1673ffffffffffffffffffffffffffffffffffffffff1681526020019081526020016000206000018054611d6890614d9a565b905003611daa576040517f08c379a0000000000000000000000000000000000000000000000000000000008152600401611da190615539565b60405180910390fd5b60008251141580611dbd57506000815114155b611dfc576040517f08c379a0000000000000000000000000000000000000000000000000000000008152600401611df3906155cb565b60405180910390fd5b6000611e086007613487565b9050611e146007613495565b600060086000838152602001908152602001600020905081816000018190555083816001019081611e4591906153bb565b5082816002019081611e5791906153bb565b5060008160050160006101000a81548160ff0219169083151502179055506000611e80336113f6565b6000015190506000611e91336113f6565b6020015190508260030160405180604001604052808481526020018381525090806001815401808255809150506001900390600052602060002090600202016000909190919091506000820151816000019081611eee91906153bb565b506020820151816001019081611f0491906153bb565b5050508260040160405180606001604052806040518060400160405280600681526020017f637265617465000000000000000000000000000000000000000000000000000081525081526020016040518060400160405280600681526020017f637265617465000000000000000000000000000000000000000000000000000081525081526020016040518060400160405280600681526020017f63726561746500000000000000000000000000000000000000000000000000008152508152509080600181540180825580915050600190039060005260206000209060030201600090919091909150600082015181600001908161200391906153bb565b50602082015181600101908161201991906153bb565b50604082015181600201908161202f91906153bb565b50505061203c33856134ab565b505050505050565b606060006120526007613487565b67ffffffffffffffff81111561206b5761206a61473f565b5b6040519080825280602002602001820160405280156120a457816020015b612091613e3b565b8152602001906001900390816120895790505b5090506000805b6120b56007613487565b811015612636578473ffffffffffffffffffffffffffffffffffffffff166120dc82611370565b73ffffffffffffffffffffffffffffffffffffffff160361262357600860008281526020019081526020016000206040518060c00160405290816000820154815260200160018201805461212f90614d9a565b80601f016020809104026020016040519081016040528092919081815260200182805461215b90614d9a565b80156121a85780601f1061217d576101008083540402835291602001916121a8565b820191906000526020600020905b81548152906001019060200180831161218b57829003601f168201915b505050505081526020016002820180546121c190614d9a565b80601f01602080910402602001604051908101604052809291908181526020018280546121ed90614d9a565b801561223a5780601f1061220f5761010080835404028352916020019161223a565b820191906000526020600020905b81548152906001019060200180831161221d57829003601f168201915b5050505050815260200160038201805480602002602001604051908101604052809291908181526020016000905b828210156123be578382906000526020600020906002020160405180604001604052908160008201805461229b90614d9a565b80601f01602080910402602001604051908101604052809291908181526020018280546122c790614d9a565b80156123145780601f106122e957610100808354040283529160200191612314565b820191906000526020600020905b8154815290600101906020018083116122f757829003601f168201915b5050505050815260200160018201805461232d90614d9a565b80601f016020809104026020016040519081016040528092919081815260200182805461235990614d9a565b80156123a65780601f1061237b576101008083540402835291602001916123a6565b820191906000526020600020905b81548152906001019060200180831161238957829003601f168201915b50505050508152505081526020019060010190612268565b50505050815260200160048201805480602002602001604051908101604052809291908181526020016000905b828210156125d3578382906000526020600020906003020160405180606001604052908160008201805461241e90614d9a565b80601f016020809104026020016040519081016040528092919081815260200182805461244a90614d9a565b80156124975780601f1061246c57610100808354040283529160200191612497565b820191906000526020600020905b81548152906001019060200180831161247a57829003601f168201915b505050505081526020016001820180546124b090614d9a565b80601f01602080910402602001604051908101604052809291908181526020018280546124dc90614d9a565b80156125295780601f106124fe57610100808354040283529160200191612529565b820191906000526020600020905b81548152906001019060200180831161250c57829003601f168201915b5050505050815260200160028201805461254290614d9a565b80601f016020809104026020016040519081016040528092919081815260200182805461256e90614d9a565b80156125bb5780601f10612590576101008083540402835291602001916125bb565b820191906000526020600020905b81548152906001019060200180831161259e57829003601f168201915b505050505081525050815260200190600101906123eb565b5050505081526020016005820160009054906101000a900460ff16151515158152505083838151811061260957612608615174565b5b6020026020010181905250818061261f906155eb565b9250505b808061262e906155eb565b9150506120ab565b5060008167ffffffffffffffff8111156126535761265261473f565b5b60405190808252806020026020018201604052801561268c57816020015b612679613e3b565b8152602001906001900390816126715790505b50905060005b828110156126e6578381815181106126ad576126ac615174565b5b60200260200101518282815181106126c8576126c7615174565b5b602002602001018190525080806126de906155eb565b915050612692565b50809350505050919050565b6000600960008373ffffffffffffffffffffffffffffffffffffffff1673ffffffffffffffffffffffffffffffffffffffff168152602001908152602001600020600001805461274190614d9a565b905003612783576040517f08c379a000000000000000000000000000000000000000000000000000000000815260040161277a9061567f565b60405180910390fd5b3373ffffffffffffffffffffffffffffffffffffffff166127a383611370565b73ffffffffffffffffffffffffffffffffffffffff16146127f9576040517f08c379a00000000000000000000000000000000000000000000000000000000081526004016127f090614ff3565b60405180910390fd5b3373ffffffffffffffffffffffffffffffffffffffff168173ffffffffffffffffffffffffffffffffffffffff1603612867576040517f08c379a000000000000000000000000000000000000000000000000000000000815260040161285e906156eb565b60405180910390fd5b600015156008600084815260200190815260200160002060050160009054906101000a900460ff161515146128d1576040517f08c379a00000000000000000000000000000000000000000000000000000000081526004016128c890615757565b60405180910390fd5b60006128dc826113f6565b60000151905060006128ed836113f6565b602001519050600860008581526020019081526020016000206003016040518060400160405280848152602001838152509080600181540180825580915050600190039060005260206000209060020201600090919091909150600082015181600001908161295c91906153bb565b50602082015181600101908161297291906153bb565b5050506008600085815260200190815260200160002060040160405180606001604052806040518060400160405280600881526020017f7472616e7366657200000000000000000000000000000000000000000000000081525081526020016040518060400160405280600881526020017f7472616e7366657200000000000000000000000000000000000000000000000081525081526020016040518060400160405280600881526020017f7472616e7366657200000000000000000000000000000000000000000000000081525081525090806001815401808255809150506001900390600052602060002090600302016000909190919091506000820151816000019081612a8391906153bb565b506020820151816001019081612a9991906153bb565b506040820151816002019081612aaf91906153bb565b505050612ac5612abe85611370565b8486613110565b50505050565b3373ffffffffffffffffffffffffffffffffffffffff16612aeb85611370565b73ffffffffffffffffffffffffffffffffffffffff1614612b41576040517f08c379a0000000000000000000000000000000000000000000000000000000008152600401612b3890614ff3565b60405180910390fd5b600015156008600086815260200190815260200160002060050160009054906101000a900460ff16151514612bab576040517f08c379a0000000000000000000000000000000000000000000000000000000008152600401612ba290615757565b60405180910390fd5b60006040518060600160405280858152602001848152602001838152509050600860008681526020019081526020016000206004018190806001815401808255809150506001900390600052602060002090600302016000909190919091506000820151816000019081612c1f91906153bb565b506020820151816001019081612c3591906153bb565b506040820151816002019081612c4b91906153bb565b5050505050505050565b6000600560008473ffffffffffffffffffffffffffffffffffffffff1673ffffffffffffffffffffffffffffffffffffffff16815260200190815260200160002060008373ffffffffffffffffffffffffffffffffffffffff1673ffffffffffffffffffffffffffffffffffffffff16815260200190815260200160002060009054906101000a900460ff16905092915050565b612cf1613409565b600073ffffffffffffffffffffffffffffffffffffffff168173ffffffffffffffffffffffffffffffffffffffff1603612d60576040517f08c379a0000000000000000000000000000000000000000000000000000000008152600401612d57906157e9565b60405180910390fd5b612d6981613506565b50565b606060086000838152602001908152602001600020600301805480602002602001604051908101604052809291908181526020016000905b82821015612efa5783829060005260206000209060020201604051806040016040529081600082018054612dd790614d9a565b80601f0160208091040260200160405190810160405280929190818152602001828054612e0390614d9a565b8015612e505780601f10612e2557610100808354040283529160200191612e50565b820191906000526020600020905b815481529060010190602001808311612e3357829003601f168201915b50505050508152602001600182018054612e6990614d9a565b80601f0160208091040260200160405190810160405280929190818152602001828054612e9590614d9a565b8015612ee25780601f10612eb757610100808354040283529160200191612ee2565b820191906000526020600020905b815481529060010190602001808311612ec557829003601f168201915b50505050508152505081526020019060010190612da4565b505050509050919050565b60007f01ffc9a7000000000000000000000000000000000000000000000000000000007bffffffffffffffffffffffffffffffffffffffffffffffffffffffff1916827bffffffffffffffffffffffffffffffffffffffffffffffffffffffff1916149050919050565b612f7881613879565b612fb7576040517f08c379a0000000000000000000000000000000000000000000000000000000008152600401612fae9061505f565b60405180910390fd5b50565b600033905090565b816004600083815260200190815260200160002060006101000a81548173ffffffffffffffffffffffffffffffffffffffff021916908373ffffffffffffffffffffffffffffffffffffffff160217905550808273ffffffffffffffffffffffffffffffffffffffff1661303583611370565b73ffffffffffffffffffffffffffffffffffffffff167f8c5be1e5ebec7d5bd14f71427d1e84f3dd0314c0f7b2291e5b200ac8c7c3b92560405160405180910390a45050565b60008061308783611370565b90508073ffffffffffffffffffffffffffffffffffffffff168473ffffffffffffffffffffffffffffffffffffffff1614806130c957506130c88185612c55565b5b8061310757508373ffffffffffffffffffffffffffffffffffffffff166130ef84610957565b73ffffffffffffffffffffffffffffffffffffffff16145b91505092915050565b8273ffffffffffffffffffffffffffffffffffffffff1661313082611370565b73ffffffffffffffffffffffffffffffffffffffff1614613186576040517f08c379a000000000000000000000000000000000000000000000000000000000815260040161317d9061587b565b60405180910390fd5b600073ffffffffffffffffffffffffffffffffffffffff168273ffffffffffffffffffffffffffffffffffffffff16036131f5576040517f08c379a00000000000000000000000000000000000000000000000000000000081526004016131ec9061590d565b60405180910390fd5b61320283838360016138ba565b8273ffffffffffffffffffffffffffffffffffffffff1661322282611370565b73ffffffffffffffffffffffffffffffffffffffff1614613278576040517f08c379a000000000000000000000000000000000000000000000000000000000815260040161326f9061587b565b60405180910390fd5b6004600082815260200190815260200160002060006101000a81549073ffffffffffffffffffffffffffffffffffffffff02191690556001600360008573ffffffffffffffffffffffffffffffffffffffff1673ffffffffffffffffffffffffffffffffffffffff168152602001908152602001600020600082825403925050819055506001600360008473ffffffffffffffffffffffffffffffffffffffff1673ffffffffffffffffffffffffffffffffffffffff16815260200190815260200160002060008282540192505081905550816002600083815260200190815260200160002060006101000a81548173ffffffffffffffffffffffffffffffffffffffff021916908373ffffffffffffffffffffffffffffffffffffffff160217905550808273ffffffffffffffffffffffffffffffffffffffff168473ffffffffffffffffffffffffffffffffffffffff167fddf252ad1be2c89b69c2b068fc378daa952ba7f163c4a11628f55a4df523b3ef60405160405180910390a461340483838360016138c0565b505050565b613411612fba565b73ffffffffffffffffffffffffffffffffffffffff1661342f611a9f565b73ffffffffffffffffffffffffffffffffffffffff1614613485576040517f08c379a000000000000000000000000000000000000000000000000000000000815260040161347c90615979565b60405180910390fd5b565b600081600001549050919050565b6001816000016000828254019250508190555050565b6134c58282604051806020016040528060008152506138c6565b5050565b60006002600083815260200190815260200160002060009054906101000a900473ffffffffffffffffffffffffffffffffffffffff169050919050565b6000600660009054906101000a900473ffffffffffffffffffffffffffffffffffffffff16905081600660006101000a81548173ffffffffffffffffffffffffffffffffffffffff021916908373ffffffffffffffffffffffffffffffffffffffff1602179055508173ffffffffffffffffffffffffffffffffffffffff168173ffffffffffffffffffffffffffffffffffffffff167f8be0079c531659141344cd1fd0a4f28419497f9722a3daafe3b4186f6b6457e060405160405180910390a35050565b8173ffffffffffffffffffffffffffffffffffffffff168373ffffffffffffffffffffffffffffffffffffffff160361363a576040517f08c379a0000000000000000000000000000000000000000000000000000000008152600401613631906159e5565b60405180910390fd5b80600560008573ffffffffffffffffffffffffffffffffffffffff1673ffffffffffffffffffffffffffffffffffffffff16815260200190815260200160002060008473ffffffffffffffffffffffffffffffffffffffff1673ffffffffffffffffffffffffffffffffffffffff16815260200190815260200160002060006101000a81548160ff0219169083151502179055508173ffffffffffffffffffffffffffffffffffffffff168373ffffffffffffffffffffffffffffffffffffffff167f17307eab39ab6107e8899845ad3d59bd9653f200f220920489ca2b5937696c318360405161372b9190613f41565b60405180910390a3505050565b613743848484613110565b61374f84848484613921565b61378e576040517f08c379a000000000000000000000000000000000000000000000000000000000815260040161378590615a77565b60405180910390fd5b50505050565b606060405180602001604052806000815250905090565b6060600060016137ba84613aa8565b01905060008167ffffffffffffffff8111156137d9576137d861473f565b5b6040519080825280601f01601f19166020018201604052801561380b5781602001600182028036833780820191505090505b509050600082602001820190505b60011561386e578080600190039150507f3031323334353637383961626364656600000000000000000000000000000000600a86061a8153600a858161386257613861615a97565b5b04945060008503613819575b819350505050919050565b60008073ffffffffffffffffffffffffffffffffffffffff1661389b836134c9565b73ffffffffffffffffffffffffffffffffffffffff1614159050919050565b50505050565b50505050565b6138d08383613bfb565b6138dd6000848484613921565b61391c576040517f08c379a000000000000000000000000000000000000000000000000000000000815260040161391390615a77565b60405180910390fd5b505050565b60006139428473ffffffffffffffffffffffffffffffffffffffff16613e18565b15613a9b578373ffffffffffffffffffffffffffffffffffffffff1663150b7a0261396b612fba565b8786866040518563ffffffff1660e01b815260040161398d9493929190615b1b565b6020604051808303816000875af19250505080156139c957506040513d601f19601f820116820180604052508101906139c69190615b7c565b60015b613a4b573d80600081146139f9576040519150601f19603f3d011682016040523d82523d6000602084013e6139fe565b606091505b506000815103613a43576040517f08c379a0000000000000000000000000000000000000000000000000000000008152600401613a3a90615a77565b60405180910390fd5b805181602001fd5b63150b7a0260e01b7bffffffffffffffffffffffffffffffffffffffffffffffffffffffff1916817bffffffffffffffffffffffffffffffffffffffffffffffffffffffff191614915050613aa0565b600190505b949350505050565b600080600090507a184f03e93ff9f4daa797ed6e38ed64bf6a1f0100000000000000008310613b06577a184f03e93ff9f4daa797ed6e38ed64bf6a1f0100000000000000008381613afc57613afb615a97565b5b0492506040810190505b6d04ee2d6d415b85acef81000000008310613b43576d04ee2d6d415b85acef81000000008381613b3957613b38615a97565b5b0492506020810190505b662386f26fc100008310613b7257662386f26fc100008381613b6857613b67615a97565b5b0492506010810190505b6305f5e1008310613b9b576305f5e1008381613b9157613b90615a97565b5b0492506008810190505b6127108310613bc0576127108381613bb657613bb5615a97565b5b0492506004810190505b60648310613be35760648381613bd957613bd8615a97565b5b0492506002810190505b600a8310613bf2576001810190505b80915050919050565b600073ffffffffffffffffffffffffffffffffffffffff168273ffffffffffffffffffffffffffffffffffffffff1603613c6a576040517f08c379a0000000000000000000000000000000000000000000000000000000008152600401613c6190615bf5565b60405180910390fd5b613c7381613879565b15613cb3576040517f08c379a0000000000000000000000000000000000000000000000000000000008152600401613caa90615c61565b60405180910390fd5b613cc16000838360016138ba565b613cca81613879565b15613d0a576040517f08c379a0000000000000000000000000000000000000000000000000000000008152600401613d0190615c61565b60405180910390fd5b6001600360008473ffffffffffffffffffffffffffffffffffffffff1673ffffffffffffffffffffffffffffffffffffffff16815260200190815260200160002060008282540192505081905550816002600083815260200190815260200160002060006101000a81548173ffffffffffffffffffffffffffffffffffffffff021916908373ffffffffffffffffffffffffffffffffffffffff160217905550808273ffffffffffffffffffffffffffffffffffffffff16600073ffffffffffffffffffffffffffffffffffffffff167fddf252ad1be2c89b69c2b068fc378daa952ba7f163c4a11628f55a4df523b3ef60405160405180910390a4613e146000838360016138c0565b5050565b6000808273ffffffffffffffffffffffffffffffffffffffff163b119050919050565b6040518060c0016040528060008152602001606081526020016060815260200160608152602001606081526020016000151581525090565b604051806040016040528060608152602001606081525090565b6000604051905090565b600080fd5b600080fd5b60007fffffffff0000000000000000000000000000000000000000000000000000000082169050919050565b613ed681613ea1565b8114613ee157600080fd5b50565b600081359050613ef381613ecd565b92915050565b600060208284031215613f0f57613f0e613e97565b5b6000613f1d84828501613ee4565b91505092915050565b60008115159050919050565b613f3b81613f26565b82525050565b6000602082019050613f566000830184613f32565b92915050565b600073ffffffffffffffffffffffffffffffffffffffff82169050919050565b6000613f8782613f5c565b9050919050565b613f9781613f7c565b8114613fa257600080fd5b50565b600081359050613fb481613f8e565b92915050565b600060208284031215613fd057613fcf613e97565b5b6000613fde84828501613fa5565b91505092915050565b600081519050919050565b600082825260208201905092915050565b60005b83811015614021578082015181840152602081019050614006565b60008484015250505050565b6000601f19601f8301169050919050565b600061404982613fe7565b6140538185613ff2565b9350614063818560208601614003565b61406c8161402d565b840191505092915050565b60006040820190508181036000830152614091818561403e565b905081810360208301526140a5818461403e565b90509392505050565b600060208201905081810360008301526140c8818461403e565b905092915050565b6000819050919050565b6140e3816140d0565b81146140ee57600080fd5b50565b600081359050614100816140da565b92915050565b60006020828403121561411c5761411b613e97565b5b600061412a848285016140f1565b91505092915050565b61413c81613f7c565b82525050565b60006020820190506141576000830184614133565b92915050565b6000806040838503121561417457614173613e97565b5b600061418285828601613fa5565b9250506020614193858286016140f1565b9150509250929050565b600081519050919050565b600082825260208201905092915050565b6000819050602082019050919050565b600082825260208201905092915050565b60006141e582613fe7565b6141ef81856141c9565b93506141ff818560208601614003565b6142088161402d565b840191505092915050565b6000606083016000830151848203600086015261423082826141da565b9150506020830151848203602086015261424a82826141da565b9150506040830151848203604086015261426482826141da565b9150508091505092915050565b600061427d8383614213565b905092915050565b6000602082019050919050565b600061429d8261419d565b6142a781856141a8565b9350836020820285016142b9856141b9565b8060005b858110156142f557848403895281516142d68582614271565b94506142e183614285565b925060208a019950506001810190506142bd565b50829750879550505050505092915050565b600060208201905081810360008301526143218184614292565b905092915050565b60008060006060848603121561434257614341613e97565b5b600061435086828701613fa5565b935050602061436186828701613fa5565b9250506040614372868287016140f1565b9150509250925092565b614385816140d0565b82525050565b600081519050919050565b600082825260208201905092915050565b6000819050602082019050919050565b600060408301600083015184820360008601526143d482826141da565b915050602083015184820360208601526143ee82826141da565b9150508091505092915050565b600061440783836143b7565b905092915050565b6000602082019050919050565b60006144278261438b565b6144318185614396565b935083602082028501614443856143a7565b8060005b8581101561447f578484038952815161446085826143fb565b945061446b8361440f565b925060208a01995050600181019050614447565b50829750879550505050505092915050565b600082825260208201905092915050565b60006144ad8261419d565b6144b78185614491565b9350836020820285016144c9856141b9565b8060005b8581101561450557848403895281516144e68582614271565b94506144f183614285565b925060208a019950506001810190506144cd565b50829750879550505050505092915050565b61452081613f26565b82525050565b600060c08301600083015161453e600086018261437c565b506020830151848203602086015261455682826141da565b9150506040830151848203604086015261457082826141da565b9150506060830151848203606086015261458a828261441c565b915050608083015184820360808601526145a482826144a2565b91505060a08301516145b960a0860182614517565b508091505092915050565b600060208201905081810360008301526145de8184614526565b905092915050565b6000604083016000830151848203600086015261460382826141da565b9150506020830151848203602086015261461d82826141da565b9150508091505092915050565b6000602082019050818103600083015261464481846145e6565b905092915050565b614655816140d0565b82525050565b6000602082019050614670600083018461464c565b92915050565b600060808201905061468b600083018761464c565b818103602083015261469d818661403e565b905081810360408301526146b1818561403e565b90506146c06060830184613f32565b95945050505050565b6146d281613f26565b81146146dd57600080fd5b50565b6000813590506146ef816146c9565b92915050565b6000806040838503121561470c5761470b613e97565b5b600061471a85828601613fa5565b925050602061472b858286016146e0565b9150509250929050565b600080fd5b600080fd5b7f4e487b7100000000000000000000000000000000000000000000000000000000600052604160045260246000fd5b6147778261402d565b810181811067ffffffffffffffff821117156147965761479561473f565b5b80604052505050565b60006147a9613e8d565b90506147b5828261476e565b919050565b600067ffffffffffffffff8211156147d5576147d461473f565b5b6147de8261402d565b9050602081019050919050565b82818337600083830152505050565b600061480d614808846147ba565b61479f565b9050828152602081018484840111156148295761482861473a565b5b6148348482856147eb565b509392505050565b600082601f83011261485157614850614735565b5b81356148618482602086016147fa565b91505092915050565b6000806040838503121561488157614880613e97565b5b600083013567ffffffffffffffff81111561489f5761489e613e9c565b5b6148ab8582860161483c565b925050602083013567ffffffffffffffff8111156148cc576148cb613e9c565b5b6148d88582860161483c565b9150509250929050565b600067ffffffffffffffff8211156148fd576148fc61473f565b5b6149068261402d565b9050602081019050919050565b6000614926614921846148e2565b61479f565b9050828152602081018484840111156149425761494161473a565b5b61494d8482856147eb565b509392505050565b600082601f83011261496a57614969614735565b5b813561497a848260208601614913565b91505092915050565b6000806000806080858703121561499d5761499c613e97565b5b60006149ab87828801613fa5565b94505060206149bc87828801613fa5565b93505060406149cd878288016140f1565b925050606085013567ffffffffffffffff8111156149ee576149ed613e9c565b5b6149fa87828801614955565b91505092959194509250565b600081519050919050565b600082825260208201905092915050565b6000819050602082019050919050565b600060c083016000830151614a4a600086018261437c565b5060208301518482036020860152614a6282826141da565b91505060408301518482036040860152614a7c82826141da565b91505060608301518482036060860152614a96828261441c565b91505060808301518482036080860152614ab082826144a2565b91505060a0830151614ac560a0860182614517565b508091505092915050565b6000614adc8383614a32565b905092915050565b6000602082019050919050565b6000614afc82614a06565b614b068185614a11565b935083602082028501614b1885614a22565b8060005b85811015614b545784840389528151614b358582614ad0565b9450614b4083614ae4565b925060208a01995050600181019050614b1c565b50829750879550505050505092915050565b60006020820190508181036000830152614b808184614af1565b905092915050565b60008060408385031215614b9f57614b9e613e97565b5b6000614bad858286016140f1565b9250506020614bbe85828601613fa5565b9150509250929050565b60008060008060808587031215614be257614be1613e97565b5b6000614bf0878288016140f1565b945050602085013567ffffffffffffffff811115614c1157614c10613e9c565b5b614c1d8782880161483c565b935050604085013567ffffffffffffffff811115614c3e57614c3d613e9c565b5b614c4a8782880161483c565b925050606085013567ffffffffffffffff811115614c6b57614c6a613e9c565b5b614c778782880161483c565b91505092959194509250565b60008060408385031215614c9a57614c99613e97565b5b6000614ca885828601613fa5565b9250506020614cb985828601613fa5565b9150509250929050565b600082825260208201905092915050565b6000614cdf8261438b565b614ce98185614cc3565b935083602082028501614cfb856143a7565b8060005b85811015614d375784840389528151614d1885826143fb565b9450614d238361440f565b925060208a01995050600181019050614cff565b50829750879550505050505092915050565b60006020820190508181036000830152614d638184614cd4565b905092915050565b7f4e487b7100000000000000000000000000000000000000000000000000000000600052602260045260246000fd5b60006002820490506001821680614db257607f821691505b602082108103614dc557614dc4614d6b565b5b50919050565b7f4552433732313a20617070726f76616c20746f2063757272656e74206f776e6560008201527f7200000000000000000000000000000000000000000000000000000000000000602082015250565b6000614e27602183613ff2565b9150614e3282614dcb565b604082019050919050565b60006020820190508181036000830152614e5681614e1a565b9050919050565b7f4552433732313a20617070726f76652063616c6c6572206973206e6f7420746f60008201527f6b656e206f776e6572206f7220617070726f76656420666f7220616c6c000000602082015250565b6000614eb9603d83613ff2565b9150614ec482614e5d565b604082019050919050565b60006020820190508181036000830152614ee881614eac565b9050919050565b7f4552433732313a2063616c6c6572206973206e6f7420746f6b656e206f776e6560008201527f72206f7220617070726f76656400000000000000000000000000000000000000602082015250565b6000614f4b602d83613ff2565b9150614f5682614eef565b604082019050919050565b60006020820190508181036000830152614f7a81614f3e565b9050919050565b7f596f7520617265206e6f7420746865206f776e6572206f66207468697320707260008201527f6f64756374000000000000000000000000000000000000000000000000000000602082015250565b6000614fdd602583613ff2565b9150614fe882614f81565b604082019050919050565b6000602082019050818103600083015261500c81614fd0565b9050919050565b7f4552433732313a20696e76616c696420746f6b656e2049440000000000000000600082015250565b6000615049601883613ff2565b915061505482615013565b602082019050919050565b600060208201905081810360008301526150788161503c565b9050919050565b7f4552433732313a2061646472657373207a65726f206973206e6f74206120766160008201527f6c6964206f776e65720000000000000000000000000000000000000000000000602082015250565b60006150db602983613ff2565b91506150e68261507f565b604082019050919050565b6000602082019050818103600083015261510a816150ce565b9050919050565b7f4e487b7100000000000000000000000000000000000000000000000000000000600052601160045260246000fd5b600061514b826140d0565b9150615156836140d0565b925082820390508181111561516e5761516d615111565b5b92915050565b7f4e487b7100000000000000000000000000000000000000000000000000000000600052603260045260246000fd5b7f4e616d65206d757374206e6f7420626520656d70747900000000000000000000600082015250565b60006151d9601683613ff2565b91506151e4826151a3565b602082019050919050565b60006020820190508181036000830152615208816151cc565b9050919050565b60008190508160005260206000209050919050565b60006020601f8301049050919050565b600082821b905092915050565b6000600883026152717fffffffffffffffffffffffffffffffffffffffffffffffffffffffffffffffff82615234565b61527b8683615234565b95508019841693508086168417925050509392505050565b6000819050919050565b60006152b86152b36152ae846140d0565b615293565b6140d0565b9050919050565b6000819050919050565b6152d28361529d565b6152e66152de826152bf565b848454615241565b825550505050565b600090565b6152fb6152ee565b6153068184846152c9565b505050565b5b8181101561532a5761531f6000826152f3565b60018101905061530c565b5050565b601f82111561536f576153408161520f565b61534984615224565b81016020851015615358578190505b61536c61536485615224565b83018261530b565b50505b505050565b600082821c905092915050565b600061539260001984600802615374565b1980831691505092915050565b60006153ab8383615381565b9150826002028217905092915050565b6153c482613fe7565b67ffffffffffffffff8111156153dd576153dc61473f565b5b6153e78254614d9a565b6153f282828561532e565b600060209050601f8311600181146154255760008415615413578287015190505b61541d858261539f565b865550615485565b601f1984166154338661520f565b60005b8281101561545b57848901518255600182019150602085019450602081019050615436565b868310156154785784890151615474601f891682615381565b8355505b6001600288020188555050505b505050505050565b600081905092915050565b60006154a382613fe7565b6154ad818561548d565b93506154bd818560208601614003565b80840191505092915050565b60006154d58285615498565b91506154e18284615498565b91508190509392505050565b7f596f75206d757374207265676973746572206173206f776e6572206669727374600082015250565b6000615523602083613ff2565b915061552e826154ed565b602082019050919050565b6000602082019050818103600083015261555281615516565b9050919050565b7f50726f64756374206e616d65206f72206f726967696e206d757374206e6f742060008201527f626520656d707479000000000000000000000000000000000000000000000000602082015250565b60006155b5602883613ff2565b91506155c082615559565b604082019050919050565b600060208201905081810360008301526155e4816155a8565b9050919050565b60006155f6826140d0565b91507fffffffffffffffffffffffffffffffffffffffffffffffffffffffffffffffff820361562857615627615111565b5b600182019050919050565b7f4e6577206f776e6572206d757374207265676973746572000000000000000000600082015250565b6000615669601783613ff2565b915061567482615633565b602082019050919050565b600060208201905081810360008301526156988161565c565b9050919050565b7f596f752061726520616c726561647920746865206f776e657200000000000000600082015250565b60006156d5601983613ff2565b91506156e08261569f565b602082019050919050565b60006020820190508181036000830152615704816156c8565b9050919050565b7f50726f6475637420616c72656164792076657269666965640000000000000000600082015250565b6000615741601883613ff2565b915061574c8261570b565b602082019050919050565b6000602082019050818103600083015261577081615734565b9050919050565b7f4f776e61626c653a206e6577206f776e657220697320746865207a65726f206160008201527f6464726573730000000000000000000000000000000000000000000000000000602082015250565b60006157d3602683613ff2565b91506157de82615777565b604082019050919050565b60006020820190508181036000830152615802816157c6565b9050919050565b7f4552433732313a207472616e736665722066726f6d20696e636f72726563742060008201527f6f776e6572000000000000000000000000000000000000000000000000000000602082015250565b6000615865602583613ff2565b915061587082615809565b604082019050919050565b6000602082019050818103600083015261589481615858565b9050919050565b7f4552433732313a207472616e7366657220746f20746865207a65726f2061646460008201527f7265737300000000000000000000000000000000000000000000000000000000602082015250565b60006158f7602483613ff2565b91506159028261589b565b604082019050919050565b60006020820190508181036000830152615926816158ea565b9050919050565b7f4f776e61626c653a2063616c6c6572206973206e6f7420746865206f776e6572600082015250565b6000615963602083613ff2565b915061596e8261592d565b602082019050919050565b6000602082019050818103600083015261599281615956565b9050919050565b7f4552433732313a20617070726f766520746f2063616c6c657200000000000000600082015250565b60006159cf601983613ff2565b91506159da82615999565b602082019050919050565b600060208201905081810360008301526159fe816159c2565b9050919050565b7f4552433732313a207472616e7366657220746f206e6f6e20455243373231526560008201527f63656976657220696d706c656d656e7465720000000000000000000000000000602082015250565b6000615a61603283613ff2565b9150615a6c82615a05565b604082019050919050565b60006020820190508181036000830152615a9081615a54565b9050919050565b7f4e487b7100000000000000000000000000000000000000000000000000000000600052601260045260246000fd5b600081519050919050565b600082825260208201905092915050565b6000615aed82615ac6565b615af78185615ad1565b9350615b07818560208601614003565b615b108161402d565b840191505092915050565b6000608082019050615b306000830187614133565b615b3d6020830186614133565b615b4a604083018561464c565b8181036060830152615b5c8184615ae2565b905095945050505050565b600081519050615b7681613ecd565b92915050565b600060208284031215615b9257615b91613e97565b5b6000615ba084828501615b67565b91505092915050565b7f4552433732313a206d696e7420746f20746865207a65726f2061646472657373600082015250565b6000615bdf602083613ff2565b9150615bea82615ba9565b602082019050919050565b60006020820190508181036000830152615c0e81615bd2565b9050919050565b7f4552433732313a20746f6b656e20616c7265616479206d696e74656400000000600082015250565b6000615c4b601c83613ff2565b9150615c5682615c15565b602082019050919050565b60006020820190508181036000830152615c7a81615c3e565b905091905056fea2646970667358221220f0b0ab39ae772a3d31902c4f3533131b5bc139d169363b7e22bf78e3da72ca5464736f6c63430008110033",
  "linkReferences": {},
  "deployedLinkReferences": {}
}